{
    "contractName": "Coinflip",
    "abi": [
        {
            "inputs": [],
            "stateMutability": "nonpayable",
            "type": "constructor"
        },
        {
            "inputs": [],
            "name": "owner",
            "outputs": [
                {
                    "internalType": "address",
                    "name": "",
                    "type": "address"
                }
            ],
            "stateMutability": "view",
            "type": "function"
        },
        {
            "stateMutability": "payable",
            "type": "receive"
        },
        {
            "inputs": [
                {
                    "internalType": "bool",
                    "name": "guess",
                    "type": "bool"
                }
            ],
            "name": "flip",
            "outputs": [],
            "stateMutability": "payable",
            "type": "function"
        }
    ],
    "bytecode": "0x608060405234801561000f575f80fd5b50335f806101000a81548173ffffffffffffffffffffffffffffffffffffffff021916908373ffffffffffffffffffffffffffffffffffffffff1602179055506103928061005c5f395ff3fe60806040526004361061002c575f3560e01c80631d263f67146100375780638da5cb5b1461005357610033565b3661003357005b5f80fd5b610051600480360381019061004c919061018d565b61007d565b005b34801561005e575f80fd5b50610067610131565b60405161007491906101f7565b60405180910390f35b5f34116100bf576040517f08c379a00000000000000000000000000000000000000000000000000000000081526004016100b69061026a565b60405180910390fd5b5f806002426100ce91906102be565b1490508015158215150361012d573373ffffffffffffffffffffffffffffffffffffffff166108fc600234610103919061031b565b90811502906040515f60405180830381858888f1935050505015801561012b573d5f803e3d5ffd5b505b5050565b5f8054906101000a900473ffffffffffffffffffffffffffffffffffffffff1681565b5f80fd5b5f8115159050919050565b61016c81610158565b8114610176575f80fd5b50565b5f8135905061018781610163565b92915050565b5f602082840312156101a2576101a1610154565b5b5f6101af84828501610179565b91505092915050565b5f73ffffffffffffffffffffffffffffffffffffffff82169050919050565b5f6101e1826101b8565b9050919050565b6101f1816101d7565b82525050565b5f60208201905061020a5f8301846101e8565b92915050565b5f82825260208201905092915050565b7f596f75206e65656420746f20776167657220736f6d65204554482100000000005f82015250565b5f610254601b83610210565b915061025f82610220565b602082019050919050565b5f6020820190508181035f83015261028181610248565b9050919050565b5f819050919050565b7f4e487b71000000000000000000000000000000000000000000000000000000005f52601260045260245ffd5b5f6102c882610288565b91506102d383610288565b9250826102e3576102e2610291565b5b828206905092915050565b7f4e487b71000000000000000000000000000000000000000000000000000000005f52601160045260245ffd5b5f61032582610288565b915061033083610288565b925082820261033e81610288565b91508282048414831517610355576103546102ee565b5b509291505056fea264697066735822122043048d1bab34b108fb60686570e1a58c1750f4c0aa6df9e7f8031d15cb366ed564736f6c63430008150033",
    "immutableReferences": {},
    "source": "// SPDX-License-Identifier: MIT\r\npragma solidity ^0.8.0;\r\n\r\ncontract Coinflip {\r\n    address public owner;\r\n\r\n    constructor() {\r\n        owner = msg.sender;\r\n    }\r\n\r\n    function flip(bool guess) public payable {\r\n        require(msg.value > 0, \"You need to wager some ETH!\");\r\n\r\n        bool coinflip = (block.timestamp % 2 == 0);\r\n        if (guess == coinflip) {\r\n            payable(msg.sender).transfer(msg.value * 2);\r\n        }\r\n    }\r\n\r\n    // Fallback function to accept ETH\r\n    receive() external payable {}\r\n}\r\n",
    "sourcePath": "C:\\Users\\ACER\\OneDrive\\Desktop\\Rohit\\FlipCoinGame\\contracts\\Coinflip.sol",
    "compiler": {
        "name": "solc",
        "version": "0.8.21+commit.d9974bed.Emscripten.clang"
    },
    "schemaVersion": "3.4.16",
    "updatedAt": "2024-08-24T15:29:23.426Z",
    "devdoc": {
        "kind": "dev",
        "methods": {},
        "version": 1
    },
    "userdoc": {
        "kind": "user",
        "methods": {},
        "version": 1
    }
}